{
  "contractName": "Campaign",
  "abi": [
    {
      "constant": true,
      "inputs": [
        {
          "name": "",
          "type": "address"
        }
      ],
      "name": "contributors",
      "outputs": [
        {
          "name": "",
          "type": "bool"
        }
      ],
      "payable": false,
      "stateMutability": "view",
      "type": "function"
    },
    {
      "constant": true,
      "inputs": [],
      "name": "manager",
      "outputs": [
        {
          "name": "",
          "type": "address"
        }
      ],
      "payable": false,
      "stateMutability": "view",
      "type": "function"
    },
    {
      "constant": true,
      "inputs": [],
      "name": "contributorsCount",
      "outputs": [
        {
          "name": "",
          "type": "uint256"
        }
      ],
      "payable": false,
      "stateMutability": "view",
      "type": "function"
    },
    {
      "constant": true,
      "inputs": [
        {
          "name": "",
          "type": "uint256"
        }
      ],
      "name": "requests",
      "outputs": [
        {
          "name": "description",
          "type": "string"
        },
        {
          "name": "amount",
          "type": "uint256"
        },
        {
          "name": "recipient",
          "type": "address"
        },
        {
          "name": "voteCount",
          "type": "uint256"
        }
      ],
      "payable": false,
      "stateMutability": "view",
      "type": "function"
    },
    {
      "constant": true,
      "inputs": [],
      "name": "minimumDonation",
      "outputs": [
        {
          "name": "",
          "type": "uint256"
        }
      ],
      "payable": false,
      "stateMutability": "view",
      "type": "function"
    },
    {
      "inputs": [
        {
          "name": "minimum",
          "type": "uint256"
        }
      ],
      "payable": false,
      "stateMutability": "nonpayable",
      "type": "constructor"
    },
    {
      "constant": false,
      "inputs": [],
      "name": "donate",
      "outputs": [],
      "payable": true,
      "stateMutability": "payable",
      "type": "function"
    },
    {
      "constant": true,
      "inputs": [],
      "name": "getBalance",
      "outputs": [
        {
          "name": "",
          "type": "uint256"
        }
      ],
      "payable": false,
      "stateMutability": "view",
      "type": "function"
    },
    {
      "constant": false,
      "inputs": [
        {
          "name": "description",
          "type": "string"
        },
        {
          "name": "amount",
          "type": "uint256"
        },
        {
          "name": "recipient",
          "type": "address"
        }
      ],
      "name": "createRequest",
      "outputs": [],
      "payable": false,
      "stateMutability": "nonpayable",
      "type": "function"
    },
    {
      "constant": false,
      "inputs": [
        {
          "name": "requestIndex",
          "type": "uint256"
        }
      ],
      "name": "aproveRequest",
      "outputs": [],
      "payable": false,
      "stateMutability": "nonpayable",
      "type": "function"
    }
  ],
  "bytecode": "0x608060405234801561001057600080fd5b50604051602080610c5283398101806040528101908080519060200190929190505050336000806101000a81548173ffffffffffffffffffffffffffffffffffffffff021916908373ffffffffffffffffffffffffffffffffffffffff1602179055508060048190555050610bc88061008a6000396000f300608060405260043610610099576000357c0100000000000000000000000000000000000000000000000000000000900463ffffffff16806308dcf1871461009e57806312065fe0146100cb5780631f6d4942146100f6578063481c6a75146101515780637569b3d7146101a857806381d12c58146101d35780638a9cfd55146102ba57806396d8f4f31461034d578063ed88c68e14610378575b600080fd5b3480156100aa57600080fd5b506100c960048036038101908080359060200190929190505050610382565b005b3480156100d757600080fd5b506100e06105db565b6040518082815260200191505060405180910390f35b34801561010257600080fd5b50610137600480360381019080803573ffffffffffffffffffffffffffffffffffffffff16906020019092919050505061060d565b604051808215151515815260200191505060405180910390f35b34801561015d57600080fd5b5061016661062d565b604051808273ffffffffffffffffffffffffffffffffffffffff1673ffffffffffffffffffffffffffffffffffffffff16815260200191505060405180910390f35b3480156101b457600080fd5b506101bd610652565b6040518082815260200191505060405180910390f35b3480156101df57600080fd5b506101fe60048036038101908080359060200190929190505050610658565b60405180806020018581526020018473ffffffffffffffffffffffffffffffffffffffff1673ffffffffffffffffffffffffffffffffffffffff168152602001838152602001828103825286818151815260200191508051906020019080838360005b8381101561027c578082015181840152602081019050610261565b50505050905090810190601f1680156102a95780820380516001836020036101000a031916815260200191505b509550505050505060405180910390f35b3480156102c657600080fd5b5061034b600480360381019080803590602001908201803590602001908080601f016020809104026020016040519081016040528093929190818152602001838380828437820191505050505050919291929080359060200190929190803573ffffffffffffffffffffffffffffffffffffffff16906020019092919050505061074f565b005b34801561035957600080fd5b50610362610905565b6040518082815260200191505060405180910390f35b61038061090b565b005b806000151560038281548110151561039657fe5b906000526020600020906005020160030160003373ffffffffffffffffffffffffffffffffffffffff1673ffffffffffffffffffffffffffffffffffffffff16815260200190815260200160002060009054906101000a900460ff161515141515610469576040517f08c379a000000000000000000000000000000000000000000000000000000000815260040180806020018281038252601c8152602001807f616c7265616479206170726f766564207468697320726571756573740000000081525060200191505060405180910390fd5b60011515600160003373ffffffffffffffffffffffffffffffffffffffff1673ffffffffffffffffffffffffffffffffffffffff16815260200190815260200160002060009054906101000a900460ff161515141515610531576040517f08c379a00000000000000000000000000000000000000000000000000000000081526004018080602001828103825260128152602001807f686173206170726f766564206265666f7265000000000000000000000000000081525060200191505060405180910390fd5b600160038381548110151561054257fe5b906000526020600020906005020160030160003373ffffffffffffffffffffffffffffffffffffffff1673ffffffffffffffffffffffffffffffffffffffff16815260200190815260200160002060006101000a81548160ff0219169083151502179055506003828154811015156105b657fe5b9060005260206000209060050201600401600081548092919060010191905055505050565b6000670de0b6b3a76400003073ffffffffffffffffffffffffffffffffffffffff163181151561060757fe5b04905090565b60016020528060005260406000206000915054906101000a900460ff1681565b6000809054906101000a900473ffffffffffffffffffffffffffffffffffffffff1681565b60025481565b60038181548110151561066757fe5b9060005260206000209060050201600091509050806000018054600181600116156101000203166002900480601f0160208091040260200160405190810160405280929190818152602001828054600181600116156101000203166002900480156107135780601f106106e857610100808354040283529160200191610713565b820191906000526020600020905b8154815290600101906020018083116106f657829003601f168201915b5050505050908060010154908060020160009054906101000a900473ffffffffffffffffffffffffffffffffffffffff16908060040154905084565b610757610ab8565b6000809054906101000a900473ffffffffffffffffffffffffffffffffffffffff1673ffffffffffffffffffffffffffffffffffffffff163373ffffffffffffffffffffffffffffffffffffffff1614151561081b576040517f08c379a00000000000000000000000000000000000000000000000000000000081526004018080602001828103825260178152602001807f6f6e6c79206d616e616765722063616e206170726f766500000000000000000081525060200191505060405180910390fd5b6080604051908101604052808581526020018481526020018373ffffffffffffffffffffffffffffffffffffffff168152602001600081525090506003819080600181540180825580915050906001820390600052602060002090600502016000909192909190915060008201518160000190805190602001906108a0929190610af7565b506020820151816001015560408201518160020160006101000a81548173ffffffffffffffffffffffffffffffffffffffff021916908373ffffffffffffffffffffffffffffffffffffffff1602179055506060820151816004015550505050505050565b60045481565b6004543410151515610985576040517f08c379a00000000000000000000000000000000000000000000000000000000081526004018080602001828103825260118152602001807f646f6e617465206d6f7265206d6f6e657900000000000000000000000000000081525060200191505060405180910390fd5b60001515600160003373ffffffffffffffffffffffffffffffffffffffff1673ffffffffffffffffffffffffffffffffffffffff16815260200190815260200160002060009054906101000a900460ff161515141515610a4d576040517f08c379a000000000000000000000000000000000000000000000000000000000815260040180806020018281038252600f8152602001807f616c726561647920646f6e61746564000000000000000000000000000000000081525060200191505060405180910390fd5b60018060003373ffffffffffffffffffffffffffffffffffffffff1673ffffffffffffffffffffffffffffffffffffffff16815260200190815260200160002060006101000a81548160ff021916908315150217905550600260008154809291906001019190505550565b6080604051908101604052806060815260200160008152602001600073ffffffffffffffffffffffffffffffffffffffff168152602001600081525090565b828054600181600116156101000203166002900490600052602060002090601f016020900481019282601f10610b3857805160ff1916838001178555610b66565b82800160010185558215610b66579182015b82811115610b65578251825591602001919060010190610b4a565b5b509050610b739190610b77565b5090565b610b9991905b80821115610b95576000816000905550600101610b7d565b5090565b905600a165627a7a72305820a578c36decfa3e45bff0746e4357ffe4be280d8ef156693c363f2401a38dc8830029",
  "source": "pragma solidity ^0.4.17;\n\ncontract Campaign{\n    struct Request{\n        string description;\n        uint amount;\n        address recipient;\n        mapping(address => bool) votes;\n        uint voteCount;\n    }\n\n    address public manager;\n    mapping(address => bool) public contributors;\n    uint public contributorsCount;\n    Request[] public requests;\n    uint public minimumDonation;\n\n    constructor(uint minimum) public{\n        manager = msg.sender;\n        minimumDonation = minimum;\n    }\n\n    modifier isTheOwner(){\n        require(msg.sender == manager,'only manager can aprove');\n        _;\n    }\n\n    modifier isContributor(){\n        require(contributors[msg.sender] == true, '');\n        _;\n    }\n\n    modifier hasDonatedBefore(){\n        require(contributors[msg.sender]==false,'already donated');\n        _;\n    }\n\n    modifier isDonatingThemMin(){\n        require(msg.value >= minimumDonation, 'donate more money');\n        _;\n    }\n\n    modifier hasAprovedBefore(uint requestIndex){\n        require(requests[requestIndex].votes[msg.sender] == false, 'already aproved this request');\n        _;\n    }\n\n    function donate() public payable isDonatingThemMin hasDonatedBefore{\n        contributors[msg.sender] = true;\n        contributorsCount++;\n    }\n\n    function getBalance() public view returns(uint){\n        return address(this).balance / 1 ether;\n    }\n\n    function createRequest(string description,uint amount,address recipient) public isTheOwner{\n\n        Request memory newRequest = Request({\n            description:description,\n            amount:amount,\n            recipient: recipient,\n            voteCount:0\n        });\n\n        requests.push(newRequest);\n    }\n\n    function aproveRequest(uint requestIndex) public hasAprovedBefore(requestIndex){\n        require(contributors[msg.sender]==true,'has aproved before');\n        requests[requestIndex].votes[msg.sender] = true;\n        requests[requestIndex].voteCount ++;\n    }\n}\n",
  "sourcePath": "/Users/emmanuelorozco/Documents/blockchain/blockchain-kickstarter/contracts/Campaign.sol",
  "compiler": {
    "name": "solc",
    "version": "0.4.24+commit.e67f0147.Emscripten.clang"
  },
  "schemaVersion": "2.0.1",
  "updatedAt": "2018-07-01T01:04:35.118Z"
}